:100000000A128A11E02FFF0000308A007F08820761
:1000100008280A128A11482F0A128A11CB2E0A12B6
:100020008A11EF2D00308A000408840A8207003408
:100030003034313432343334343435343634373484
:10004000383439346134623463346434653466344A
:100B8800043464008001840A04060319003404064E
:100B9800C62DF300F201731CD52D7008F100710801
:100BA800F2070310F00D0310F30C7308031DCF2D8B
:100BB800720808007E088A007F088200DE250A1273
:100BC8008A118000840A04087D0603190034FF0A8C
:100BD8000319FE0AE22D0630F4007408F0008312AF
:100BE800031368080A128A11CD250A128A11903E49
:100BF8008400831700088312031385000630F4006D
:100C08007408F00068080A128A11CD250A128A11A0
:100C1800013E903E84008317000883120313870067
:100C28000630F4007408F00068080A128A11CD250D
:100C3800023E903E84008317000883120313880045
:100C4800640891000130F4007408EC000800463094
:100C5800831603139F000730831203139200FF309B
:100C6800831603139200831203138C108316031345
:100C780085110511851005108813081388120812AC
:100C88008713871207128811081188100810871116
:100C9800831603171008831203138500831603179E
:100CA800110883120313870083160317120883128F
:100CB80003138800831203138C1C5E2E8C100130E2
:100CC800E6070318E70A0030E7076C080A128A11DA
:100CD80003200A128A1164005E2E03340034C034E3
:100CE80000340234063405340034C034003401348E
:100CF800063409340034C03400340134063409346D
:100D08000834C13480340034063409340834C0341B
:100D180080340034063409340834C1348034003453
:100D2800063409340834C0348034003406340834B6
:100D3800B834B1348034003406340834B834B034AC
:100D480080340034063408349834AD3480340034A8
:100D5800063408349834AC3480340034063408340B
:100D68002834473480340034063408342834463470
:100D7800803400340634083428344734803400344E
:100D880006340834203446340034043409348312D9
:100D9800031361086702031DD32E60086602031C53
:100DA80008007B08F4007408E8000630F4007408B2
:100DB800F0007B080A128A11CD250A128A11053E15
:100DC800903E84008317000AF5000130F6000030D9
:100DD800F700F12E0310F60DF70DF50BEE2E760841
:100DE80083120313E2007708E3000130F40074086B
:100DF800FB070F307B020318FB01E601E701063011
:100E0800F4007408F0007B080A128A11CD250A1232
:100E18008A11053E903E84008317000AF5000130D0
:100E2800F6000030F7001B2F0310F60DF70DF50B39
:100E3800182F7608F9007708FA000630F4007408CD
:100E4800F0007B080A128A11CD25033E903E8400EB
:100E580083170008F500840A0008F6007909F700EE
:100E68007A09F800F70A0319F80A75087707831250
:100E78000313E00076080318760A7807E1000130CA
:100E8800F4007408EC0008000630F4007408F00060
:100E98008312031368080A128A11CD250A128A11CF
:100EA800053E903E840083170008F5007508F80099
:100EB800831203136708F5006608F4000310F50CA5
:100EC800F40C7408F9007508FA0063087A02031D27
:100ED8006F2F62087902031C752FE601E7010430C1
:100EE800A92F7908F4007A08F500F601F70108300F
:100EF8000310F40DF50DF60DF70DFF3E031D7C2FC5
:100F0800780A8B2F0310F70CF60CF50CF40CFF3E47
:100F1800031D862F7508E5007408E400013065029A
:100F2800003003196402031C9D2FFF30E4000030D9
:100F3800E50064086504031DA52F0130E4000030B6
:100F4800E5006403FF3A91000730F4007408EC00F0
:100F58000630F4007408F0007B080A128A11CD25C7
:100F68000A128A11903E8400831700088312031323
:100F780085000630F4007408F0007B080A128A1114
:100F8800CD250A128A11013E903E8400831700087D
:100F98008312031387000630F4007408F0007B08FE
:100FA8000A128A11CD25023E903E8400831700085C
:100FB80083120313880008008317EA30FD00063007
:100FC800FE007130FF00903084000A128A11E22579
:100FD8000A128A110A128A11C4250A128A11EC000F
:100FE8008313203084006C300A128A11C525FB0156
:080FF80083010A128A112B2E5D
:02400E007E3FF3
:00000001FF
