:100000000A128A1112280134FE00030EF3000408BC
:10001000F4000A08F500831203137F08F6000A12A1
:100020008A15552B0A128A1115280A128A151120D1
:100030000A128A11E8000A128A1512200A128A117D
:10004000E9000A128A1513200A128A11EA000A121C
:100050008A1103200A128A11FD0083179030840050
:10006000D0300A128A1514200A128A118313A03084
:100070008400E6300A128A1514200A128A112030F0
:10008000840046300A128A151420F701F801F9019C
:10009000FA01FB01FC0183010A128A11C72CFF003F
:1000A00000308A007F088207542855285628572890
:1000B000582859280A128A15E52C0A128A15402850
:1000C0000A128A1550280A128A15092A0A128A1554
:1000D0001C280A128A15822A0A128A11F62F0A127D
:1000E0008A15DB280A128A1573280A128A15742CBD
:1000F0000A128A1510280A128A15572D0A128A1513
:100100000A2C0A128A15432A0A128A15042B0A128B
:100110008A11772F0A128A157029FF0000308A0091
:100120007F08820792280A128A1522290A128A1148
:1001300099287808803AFF0080307F02031DA228AA
:10014000FF3077020318F728C030F0007008F10084
:100150000C30831203133505F0000C307006031DBC
:10016000B5280C30F0007008F10430303505F0008F
:1001700030307006031DC0283030F0007008F104E4
:1001800003303505F00003307006031DCB28033023
:10019000F0007008F1047108F00070088805013063
:1001A000F0007008FD007703FF3AFF3E831603134B
:1001B0009200013083120313A0070318A10A003034
:1001C000A1072108803AFF0080307F02031DEA2842
:1001D00064302002031C080083120313A001A10154
:1001E0000130F7070318F80A0030F807080001305B
:1001F000F0007008FD00FF30831603139200080022
:10020000FF1B0A2983137F1883170008840A031928
:10021000FF0A08007F087F398A000408840A03194E
:10022000FF0A8200F63411340834F63412340834EC
:10023000F63413340934F63414340A34F6341534ED
:100240000B34F63416340C34F63417340D34F734DA
:1002500018340E34F73419340F34F8341A34103497
:10026000F8341B341134F9341C341234FA341D348C
:100270001334FA341E341434FB341F341534FB3475
:1002800020341634FC3421341734FC34223418342E
:10029000FD3423341934FD3424341A34FE34253427
:1002A0001B34FE3426341C34FF3427341D34FF3411
:1002B00028341E34003429341F3416340834FB34F7
:1002C000ED34DF34D234C534B934AE34A4349B3485
:1002D00093348C348734833481348134813484344E
:1002E00087348D3493349B34A434AE34BA34C6345A
:1002F000D234E034ED34FB34083416342434313451
:100300003E34493454345E34673482348134813429
:100310008234853489348F3496349F34A834B3348E
:10032000BE34CB34D834E534F33400340E341B34CB
:100330002934363442344E34583462346A34713499
:1003400077347B347E347F347F347D347A34763432
:100350006F3468345F3456344B3430343134323493
:100360003334343435343634373438343934613412
:10037000623463346434653466343034193403349D
:1003800003340334093403340234033409340334AA
:100390000934033409340334093403340334033493
:1003A0000934033403340334093403340334033489
:1003B0000234033402340334033403340934033481
:1003C0000934033403340334093403340334033469
:1003D000033403340334033403340334093403345F
:1003E0000334033409340334033403340934033449
:1003F0000934033409340334093403340334033433
:10040000DB3430340C3403343034193403340334E3
:100410000334093403340334033409340334093412
:100420000334093403340934033402340334093403
:100430000334023403340934033402340334033400
:1004400003340334033403340334093403340934E8
:1004500003340934033409340334023403340334D9
:1004600003340234033403340334093403340234D0
:1004700003340234033403340334093403340934B9
:100480000334093403340934033402340334DB34D1
:1004900030340C340334303419340334033403342B
:1004A0000934033403340334093403340934033482
:1004B0000934033409340334033403340934033472
:1004C000033403340934033402340334033403346F
:1004D0000234033403340334093403340934033459
:1004E0000234033409340334033403340934033449
:1004F000033403340934033402340334033403343F
:100500000934033402340334093403340334033428
:10051000093403340334033409340334DB34303412
:100520000C340334303419340334033403340934C1
:1005300003340334033409340334093403340934F1
:1005400003340834033403340334093403340234E9
:1005500003340934033403340334033403340234DE
:1005600003340334033409340334023403340334CE
:1005700003340934033402340334093403340234B9
:1005800003340334033403340334093403340934A7
:100590000334023403340934033403340334093498
:1005A00003340934033409340334DB3430340C3479
:1005B000033430341934033403340334093403343A
:1005C0000334033409340334093403340934033461
:1005D0000934033403340334093403340234033458
:1005E000093403340234033403340334033403344E
:1005F000033403340934033403340334033403343D
:100600000934033409340334093403340234033421
:100610000334033409340334093403340934033410
:10062000023403340334033402340334093403340E
:100630000934033403340334DB3430340C340334EE
:1006400030341934033402340334093403340334AA
:1006500003340934033409340334093403340934CA
:1006600003340334033409340334033403340934C6
:1006700003340234033403340334033403340334C3
:1006800003340934033403340334093403340934A0
:1006900003340334033403340334033403340334A2
:1006A0000334093403340934033403340334033486
:1006B000033409340334093403340934033409346A
:1006C000033402340334DB3430340C340334303438
:1006D0001934033402340334093403340334033447
:1006E000093403340934033409340334093403343A
:1006F0000234033409340334033403340934033437
:100700000234033403340334033403340334033432
:100710000934033403340334093403340334033415
:100720000234033409340334033403340934033406
:1007300002340334093403340234033409340334F7
:1007400009340334033403340934033402340334E6
:1007500009340334DB3430340C340334303419348A
:1007600003340234033409340334033403340934C6
:1007700003340934033409340334093403340334AF
:1007800003340934033403340334093403340234A6
:10079000033403340334033403340334033409349B
:1007A0000334093403340934033403340334033485
:1007B0000334093403340334033409340334023476
:1007C0000334033403340334033409340334093465
:1007D0000334033403340934033403340334093455
:1007E0000334DB3430340B34033430341934033401
:1007F0000234033409340334033403340934033436
:10080000093403340934033409340334033403341E
:100810000934033403340334093403340334033414
:10082000033403340334033403340334093403340A
:1008300009340334023403340334033409340334F5
:1008400009340334033403340934033403340334E4
:1008500002340334093403340934033402340334D6
:1008600003340334093403340234033409340334C5
:10087000DB3430340C340334303419340334023470
:10088000033409340334023403340934033409349F
:10089000033409340334093403340334033409348E
:1008A000033403340334093403340334033403348A
:1008B000033403340334033403340934033402347B
:1008C0000334023403340334033409340334093465
:1008D0000334033403340934033403340334093454
:1008E0000334093403340934033403340334033444
:1008F0000334093403340334033409340334DB345C
:1009000030340B34033492348234473406344B345D
:100910008234473407340434823447340834BD34D5
:100920008134473409343C34843447340034F5345A
:10093000833447340134AE3483344734023467346B
:10094000833447340334D934823447340534203473
:100950008334473404340A340A340A340A345734AA
:1009600065346C3463346F346D34653420347434DE
:100970006F34203446342D343334353420346E34DF
:100980006F347A347A346C3465340A340034831228
:1009900003138817831603138813C03083120313BD
:1009A000E40064088805C030E4006408831603137B
:1009B000880583120313BC011830831603139900B2
:1009C0002430980090308312031398008316031389
:1009D0008C160B168B10011383120313AD01EA0161
:1009E000EA0A05309200FF30831603139200831247
:1009F00003138C10831603138C14313083120313EA
:100A00009000E4308F0071308E000030C600C700C7
:100A10001830C8000030C900CE300A128A15BD2037
:100A20000A128A118130831203139F004930831602
:100A300003139F0081128312031381010B118B1684
:100A40000A128A1549210A128A110B178B17AB302B
:100A500083120313C8008430C9000A128A15FD20CE
:100A60000A128A11083083120313E4006408831603
:100A70000313CA001F3083120313E40064088316B3
:100A80000313CB00053083120313E40064088316BC
:100A90000313C200043083120313E40064088316B6
:100AA0000313C300023083120313E40064088316A7
:100AB0000313C400C501C50AFC3083120313E4000C
:100AC000640883160313C600033083120313E40083
:100AD000640883160313C700CD01CD0A11308312B9
:100AE0000313E400640883160313BE002930831245
:100AF0000313E400640883160313BF00023083125B
:100B00000313E400640883160313B6000330831252
:100B10000313E400640883160313B7002030831224
:100B20000313E400640883160313B8001030831223
:100B30000313E400640883160313B900CF30831253
:100B40000313E400640883160313BA0030308312E1
:100B50000313E400640883160313BB0006308312FA
:100B60000313E400640883160313B2002D308312CC
:100B70000313E400640883160313B300AA01AA0A4E
:100B8000AB01083083120313E400640883160313D7
:100B9000AC00043083120313E400640883160313CB
:100BA000AD00F33083120313E400640883160313CB
:100BB000AE000C3083120313E400640883160313A1
:100BC000AF006400831203133A08031DEB2DC030FD
:100BD000E4006408B5050A128A1586200A128A11F3
:100BE00083120313380803194E2EB801E7010330AE
:100BF000670203181F2E0C30E4006408C600670863
:100C00000A128A1560200A128A11AA3E831203135F
:100C1000E5006508E6006608063E840083130008C8
:100C20000319172E6608063E840001308002013049
:100C3000E4006408E70703306702031CFB2D013062
:100C4000E4006408B7072A080319282E0130AA0215
:100C50002E0803192D2E0130AE023A08031D362E40
:100C60000130E4006408B90732303E2E320803191F
:100C70004E2E0130E4006408B90719303902031C14
:100C80004E2EB9010310881F0314031C4B2E831230
:100C9000031388174E2E8312031388130A128A1522
:100CA000AC230A128A1183120313280803195F2E3A
:100CB000A80168080A128A114F200A128A118312A9
:100CC000031369080A128A114F200A128A1183122B
:100CD000031330080319E12D30080A128A114F203E
:100CE0000A128A11E12D83120313DC01DB01E101F9
:100CF0004F2F6108A03E840083130008031D4B2F73
:100D00006108D30001300310D30DFF3E031D832E75
:100D10000310530D833EDF0084300318013EE000D2
:100D20006008FF005F0884000A128A1100210A127D
:100D30008A11D3000A128A1100210A128A11D400E2
:100D40005308D7005408D80002305F0784006008B9
:100D50000318600AFF000A128A1100210A128A1180
:100D60002D0203184B2F2D0857078400580803182D
:100D7000580AFF000A128A1100210A128A11D300B0
:100D8000D4015308DD005408DE002409D3002509EE
:100D9000D400D30A0319D40A5D085307D5005E08AE
:100DA00003185E0A5407D600D61BE52E2409D3008B
:100DB0002509D400D30A0319D40A5D085307D900C2
:100DC0005E0803185E0A5407FC2E2409D300250987
:100DD000D400D30A0319D40A5D085307D5005E086E
:100DE00003185E0A5407D600D509D609D50A031997
:100DF000D60A5508D9005608DA005A08803AFF008A
:100E000080307F02031D062F03305902031C112F6F
:100E1000831203136108A03E840083138001800ABB
:100E20004B2F0230831203135F07840060080318FE
:100E3000600AFF000A128A1100210A128A11FF3E7D
:100E4000D300FF3003180030D4005408803A803CAF
:100E5000031D2C2F53082D02031C472F831203134D
:100E6000AC01AC0A3230D3005308AA0003305F074C
:100E7000840060080318600AFF000A128A1100212A
:100E80000A128A11D3005308AB00DC01DC0A83127A
:100E90000313DB01DB0A0130D3005308E1070A30FA
:100EA00061020318562F5C080319792E5C08031998
:100EB0005D2F0A128A150D270800831203135B08A1
:100EC0000319672F0130D3005308AD070800AD01A7
:100ED000E1010A306102031808006108A03E8400A5
:100EE000831380010130D3005308E107692F0C30D0
:100EF00083120313CA004A08C60036080A128A156C
:100F000060200A128A11AA3E83120313CB004B08F9
:100F1000CF004F08840083130008CA004A08CC00A1
:100F20004C08CA0001300310CA0DFF3E031D932F69
:100F300003104A0DCE3E84000008CB004B08D100C0
:100F40005108803ECA00FF3003180030CB00CB1B95
:100F5000B02F5108803ECD00FF3003180030BF2F66
:100F60005108803ECA00FF3003180030CB00CA0988
:100F7000CB09CA0A0319CB0A4A08CD004B08CE0098
:100F80004E08803AFF0080307F02031DC92F2030B9
:100F90004D02031C0800831203134F0A84008313BD
:100FA0000008CA004A08D0005008CA0001300310E7
:100FB000CA0DFF3E031DD72F03104A0D033ECE3E40
:100FC000840080015008CA0001300310CA0DFF3EA2
:100FD000031DE52F03104A0D023ECE3E8400800122
:100FE000800A3030CA004A08E9000800831203135F
:100FF0002E08031D08001530C6004608B000080082
:10102000080009342434013464008001840A040671
:101030000319003404061528831203132E08031D18
:1010400008000F30C6004608B000080083120313E2
:10105000BA01C030C600460888052430C6004608DC
:10106000E9000800831603133408031D3C284008D8
:1010700003194C0803193E2801300800003008000D
:10108000013083120313C6004608A6072608031979
:1010900008000C131F150630C6004608E8000800BB
:1010A000831203132E08031D08002F08CE004E08DC
:1010B000B3000A128A15302683120313B001080008
:1010C00083120313C900C801491C6A284608C700D7
:1010D0004708C8070310C60D0310C90C4908031DB3
:1010E0006428480808000A128A1532200A128A1554
:1010F000003A031D0800323083120313C60046086D
:10110000AE000C30C6004608B00008007B0803198A
:101110000800831203130C1E08000C127908903E7D
:1011200084008317000899000130C6004608F907BB
:101130000130FB0240307902031C0800F90108006D
:1011400083120313C70040307B02031808004708CE
:10115000C6007A08903E840046088317800001305C
:10116000C6004608FA070130C6004608FB074030B3
:101170007A02031C0800FA01080083120313CB0053
:101180004B08CA004A08CC000130C8020030031CDA
:10119000C903C902480A0319490A03190800460885
:1011A000CA004C0884004A08831380000130CA003A
:1011B0004A08CC07C4280A128A1532200A128A1556
:1011C000003A031D0800831203134508803A7F3E4E
:1011D000031CF228FF30CE004E08C5070A128A15FC
:1011E00030260800323083120313CE004E08AE00C2
:1011F0001830CE004E08B0000800831203134908CF
:10120000FF00480884000A128A1100210A128A1578
:10121000003A03190800831203134908FF00480825
:1012200084000A128A1100210A128A150A128A15EC
:10123000A0200A128A15013083120313C80703186D
:10124000C90AFD283F30831203133505F0003F30F3
:101250007006031D2F29F701F801A001A10108085C
:10126000C039F0007008F1007108350488000430BE
:10127000F0007008FD0077087804031D4429FF3052
:101280008316031392000800770883160313920055
:1012900008003D3083120313C6004608C700C8018A
:1012A00008304802031808004808831203178D000D
:1012B000831603178C130C14831203170C08831264
:1012C0000313C600470884004608831380000130DA
:1012D000C6004608C7070130C6004608C80750299F
:1012E0000C3083120313CA004A08C60036080A12DB
:1012F0008A1560200A128A15AA3E83120313CB00B6
:101300004B08CC004C08063E840083130008031DE4
:1013100008004C08043E84000008CA004A08B505CD
:101320004C08033E84000008CA004A08B504333064
:10133000CA004A08E900080083120313BA01BA0A76
:1013400088170230C6004608B6000830C6004608B6
:1013500083160313C900CC01113083120313C60096
:10136000460883160313BD00C0011230840081308B
:1013700083120313FF000A128A110021163EC600D1
:10138000460883160313B100B40183120313C50189
:101390001630C6004608B3002130C6004608E900F2
:1013A00008003D3083120313C6004608C7008B13A4
:1013B000C801083048020318042A0D124808831295
:1013C00003178D008312031347088400831300085A
:1013D000831203178C00831603178C130C155530DA
:1013E0008D00AA308D008C14013083120313C600C7
:1013F0004608C7070D1EFA290130C6004608C8076F
:1014000008304802031CDD29831603170C118B17C3
:1014100008000A128A1532200A128A15003A031DA2
:101420000800831203133108CE004E073D3E8400AE
:1014300083130008CF004F08D0004508803ACE0043
:101440005008803ACE0203182D2A0130CE004E08F3
:10145000C5070A128A1530260800831203135008A4
:10146000803ACE004508803ACE0203183F2AFF306A
:10147000CE004E08C5070A128A15302608008312CE
:101480000313B00108000C3083120313CA004A088A
:10149000C60036080A128A1560200A128A15AA3E6A
:1014A00083120313CB004B08CD004D08063E840089
:1014B00083130008031D08004D0A84000008CA00B9
:1014C0004A08CC00762AB601B60A2130CA004A087A
:1014D000E9000800B6012130CA004A08E900080006
:1014E000B6012730CA004A08E90008003608003A69
:1014F0000319702A013A03196A2A033A0319632A65
:10150000702A08000A128A1532200A128A15003A37
:10151000031D0800031483120313310D3D3E8400A4
:1015200083130008CE004E08CF003308803ACE0067
:101530004F08803ACE020318A52A0130CE004E088B
:10154000B3070A128A1530260800831203134F08C6
:10155000803ACE003308803ACE020318B72AFF3013
:10156000CE004E08B3070A128A1530260800323022
:1015700083120313CE004E08AE001230CE004E0888
:10158000B00008008312031332080319FB2A450830
:10159000D0004E08D10051073D3E8400500883130F
:1015A00080003308D00003144E0D3D3E84005008E7
:1015B00080000A128A15D1210A128A158312031398
:1015C000B20188173308D0005008AF003308803AC2
:1015D000593E0318ED2A0130EE2AFF30D0005008A2
:1015E000B3070A128A1530261E3083120313D00067
:1015F0005008B00008004E08D0005008B1001B3061
:10160000D0005008B00008000C3083120313CA0049
:101610004A08C60036080A128A1560200A128A157E
:10162000AA3E83120313CB004B08CE004E0A84005F
:1016300083130008CA004A08CD004D08CA000130D3
:101640000310CA0DFF3E031D202B03104A0D033E5D
:10165000CE3E84000008803ACB000C30CC004C0811
:10166000C60036080A128A1560200A128A15073E3B
:10167000AA3E840083130008803A83120313CB022E
:10168000031C08004E08053E84000008CA004A08F2
:10169000B5043230CA004E08063E84004A08800075
:1016A0002D30CA004A08E9000800FC017C08031D2F
:1016B000A12BFC01FC0A0B1D652B0B11FC017D0805
:1016C0000A128A118D200A128A15831203130C1C28
:1016D000712B0C10E4308F0071308E00B801B80A05
:1016E000FC018C1E7B2B8C121A08F2007208BB00C6
:1016F000BC01BC0AFC018C1C902B8C10A801A80A10
:101700000130A2070318A30A0030A3070230230206
:10171000D63003192202031C8F2BA701A70AFC0154
:101720008B1C562B8B1091018C102308A5002208CE
:10173000A400A201A301A7010130F2007208A900D0
:10174000552B7608FF0075088A0074088400730E14
:101750008300FE0E7E0E090083120313270803196F
:10176000D52B6A08031DD52B8B1383160313011386
:101770008312031391018C108B17AD01E3010A3022
:1017800063020318D02B6308A03E840083138001FA
:101790000130E2006208E3070A306302031CC32B36
:1017A000EA01EA0AAC01A90188172C080319EB2BFE
:1017B0002A08031DEB2B04302B060319EB2B3F30BB
:1017C0003505E2003F306206031DEB2B0A128A1535
:1017D0000D270A128A15831203132908031908001A
:1017E000A901031083160313011F0314031CFC2B10
:1017F000831603130117FF2B8316031301138312A0
:1018000003136A080319062CEA0108000A128A1158
:10181000732608000C3083120313CA004A08C6005E
:1018200036080A128A1560200A128A15AA3E831207
:101830000313CB004B08CF004F088400831300082C
:10184000CA004A08CC004C08CA0001300310CA0D77
:10185000FF3E031D262C03104A0DCE3E84000008D7
:10186000CB004B08D0005008803ECA00FF30031860
:101870000030CB00CB1B432C5008803ECD00FF3006
:1018800003180030522C5008803ECA00FF30031865
:101890000030CB00CA09CB09CA0A0319CB0A4A088F
:1018A000CD004B08CE004E08803AFF0080307F020A
:1018B000031D5C2C20304D02031C0800831203130F
:1018C0004F08043E840083130008CA004A08B50587
:1018D0003630CA004A08E9003230CA004F08063ED6
:1018E00084004A08800008000C3083120313CA00E9
:1018F0004A08C60036080A128A1560200A128A159C
:10190000AA3E83120313CB004B08CF004F0884007C
:1019100083130008CA004A08CC004C08CA000130F2
:101920000310CA0DFF3E031D902C03104A0DCE3E3E
:1019300084000008CB004B08D0005008803ECA004D
:10194000FF3003180030CB00CB1BAD2C5008803E7D
:10195000CD00FF3003180030BC2C5008803ECA0078
:10196000FF3003180030CB00CA09CB09CA0A03199B
:10197000CB0A4A08CD004B08CE004E08803AFF0043
:1019800080307F02031DC62C20304D02031CCF2C5B
:10199000243083120313CA004A08E90008008312A6
:1019A00003134F08043E840083130008CA004A084A
:1019B000B5054F08023E84000008CA004A08B50475
:1019C0002A30CA004A08E9000800831203130C1FDA
:1019D00008003408C60001300310C60DFF3E031D89
:1019E000EC2C0310460DCE3EC7004708C8001E0869
:1019F000C60048088400460883138000480A840013
:101A00000008031D0E2D48088400A0300002031CAE
:101A10000E2D480A84008001800A1C2D480A84008B
:101A20000003031D262D48088400603000020318BF
:101A3000262D480A840080014808023E84000008E0
:101A4000C6004808033E8400460880070130C600EF
:101A50004608B40706303402031C3D2DB4013D2D69
:101A600081303B2D89303B2D91303B2D99303B2DE2
:101A7000A1303B2DA9309F00512D3408003A0319A5
:101A8000302D013A0319322D033A0319342D013A4E
:101A90000319362D073A0319382D013A03193A2D47
:101AA000512D0930C6004608E800A60108000C3098
:101AB00083120313CA004A08C60036080A128A15A0
:101AC00060200A128A15AA3E83120313CB004B082A
:101AD000CD004D0A840083130008CA0001300310B2
:101AE000CA0DFF3E031D6F2D03104A0DCE3ECB00E5
:101AF0004B08CC000130CA004A08B6070330360252
:101B00000318B6014D08033E84000008CA004D08C2
:101B1000053E8400000835054A06031DAC2D4C081F
:101B2000033E84000008803ACA004D08073E840046
:101B30000008803ACA02031C08004D08053E8400D4
:101B40000008CA004A08B5043230CA004D08063EF3
:101B500084004A08800008004D08023E8400000806
:101B6000CA004D08053E8400000835054A06031DDD
:101B7000D62D4D08073E84000008803ACA004C0864
:101B8000033E84000008803ACA02031C08004D0886
:101B9000053E84000008CA004A08B5043230CA0075
:101BA0004D08063E84004A08800008004D080A3EA1
:101BB00084000008031908004D08073E840000084F
:101BC000803ACA004C08033E84000008803ACA02EA
:101BD0000318032E4C08023E8400800180034D0848
:101BE000043E84000008CA004A08B5054D08023EBC
:101BF00084000008CA004A08B5044D080A3E840063
:101C00000130800208004C08033E84000008803A3E
:101C1000CA004D08073E84000008803ACA02031833
:101C20002A2E4C08023E84008001800A4D08043EA2
:101C300084000008CA004A08B5054D08033E840028
:101C40000008CA004A08B5044D080A3E8400013065
:101C5000800208004D080A3E84000130800208001E
:101C6000831203134508803A673E031C3B2E18304D
:101C7000CA004A08C500C51BC5013308803A583E52
:101C8000031C462E2730CA004A08B300B31BB30119
:101C90000330CA004A08C60045080A128A156020A7
:101CA0000A128A15123E840081300318013E831205
:101CB0000313FF000A128A1100210A128A15330742
:101CC000CB004B0883160313B100033083120313B8
:101CD000CA004A08C60045080A128A1560200A127E
:101CE0008A15013E123E840081300318013E8312A2
:101CF0000313FF000A128A1100210A128A15CB0071
:101D00004B0883160313BD00033083120313CA006C
:101D10004A08C60045080A128A1560200A128A1568
:101D2000023E123E840081300318013E83120313E9
:101D3000FF000A128A1100210A128A15CB004B08F3
:101D400083160313C9003108803A83120313CA00B3
:101D5000831603133208803A83120313CA0203184E
:101D6000C72E831603133103FF3A3207831203137E
:101D7000CA004A08CC004C08CA004A08831603135C
:101D8000B107831203134C08CA004A08B30783162D
:101D900003133308803A83120313CA008316031314
:101DA0003108803A83120313CA020318E92E8316FE
:101DB00003133303FF3A310783120313CA004A089F
:101DC000CD004D0883160313B102831203134D088F
:101DD000B30283160313340A0319F62E013083125B
:101DE0000313CA004A0883160313B407400A0319F1
:101DF000012F013083120313CA004A08831603130C
:101E0000C0074C0A03190800013083120313CA00EB
:101E10004A0883160313CC070800DD2F831203132F
:101E2000B201B0010310881F0314031C1B2F83127F
:101E3000031388171E2F8312031388134508803A53
:101E40007F3E031C0800FF30D2005208C5070A126B
:101E50008A153026080083120313B201B001031063
:101E6000881F0314031C382F8312031388173B2F7A
:101E70008312031388134508803A683E031808004C
:101E80000130D2005208C5070A128A153026080010
:101E900083120313B201B0010310881F0314031C43
:101EA000552F831203138817582F83120313881397
:101EB0003308803AD200831603133308803A831222
:101EC0000313D202031808000130D2005208B307EE
:101ED0000A128A153026080083120313B201B001DA
:101EE0000310881F0314031C792F83120313881710
:101EF0007C2F831203138813831603133208803A4E
:101F000083120313D2003308803AD2020318080068
:101F1000FF30D2005208B3070A128A153026080093
:101F20008312031332080319972FB20108003A08ED
:101F300003190800B201B20A08000030CE00CF0039
:101F40000A128A15C2220800013083120313CE0040
:101F50000030CF000A128A15C22208000230831214
:101F60000313CE000030CF000A128A15C2220800E7
:101F7000033083120313CE000030CF000A128A15FB
:101F8000C222080083120313B201B0010310881F9C
:101F90000314031CCF2F831203138817D22F83122D
:101FA000031388133A08031DD92F0A128A159C219E
:101FB00008000A128A1526200800831203132B0832
:101FC000003A03190E2F013A03192B2F033A031974
:101FD000482F013A03196C2F073A0319C22F013A0F
:101FE0000319902F033A03199D2F013A0319A42FC7
:101FF0000F3A0319AE2F013A0319B82FFF2F08002B
:02400E007E3FF3
:00000001FF
